:020000040800F2
:10000000880A0020310200086F020008710200080F
:100010007302000875020008770200080000000063
:10002000000000000000000000000000790200084D
:100030007B020008000000007D0200087F0200082B
:100040008102000881020008810200088102000884
:100050008102000881020008810200088102000874
:100060008102000881020008810200088102000864
:100070008102000881020008810200088102000854
:100080008102000881020008810200088102000844
:100090008102000881020008810200088102000834
:1000A0008102000881020008810200088102000824
:1000B0008102000881020008810200087D05000815
:1000C0007B05000881020008810200088102000807
:1000D00081020008810200088102000881020008F4
:1000E00081020008810200088102000881020008E4
:1000F00081020008810200088102000881020008D4
:1001000081020008810200088102000881020008C3
:1001100081020008810200088102000881020008B3
:1001200081020008810200088102000881020008A3
:100130008102000881020008810200088102000893
:100140008102000881020008810200088102000883
:100150008102000881020008810200088102000873
:100160008102000881020008810200088102000863
:1001700081020008810200088102000800000000DE
:10018000810200088102000800F002F800F041F846
:100190000AA090E8000C82448344AAF10107DA45E2
:1001A00001D100F036F8AFF2090EBAE80F0013F0F3
:1001B000010F18BFFB1A43F001031847FC39000078
:1001C0001C3A0000103A24BF78C878C1FAD8520708
:1001D00024BF30C830C144BF04680C6070470000C1
:1001E0000023002400250026103A28BF78C1FBD840
:1001F000520728BF30C148BF0B607047642900F028
:10020000A580002070471FB500F0CEFD1FBD10B5C2
:1002100010BD00F07DF91146FFF7F5FF00F0DCFBA3
:1002200000F09BF903B4FFF7F2FF03BC00F09EF966
:1002300017481849184B99423CBF50F8042B41F815
:10024000042BF8D3154B16494FF000028B4238BFF0
:1002500043F8042BFAD3DFF84C00016841F4700135
:100260000160BFF34F8FBFF36F8F0F480047FEE76A
:10027000FEE7FEE7FEE7FEE7FEE7FEE7FEE7FEE756
:10028000FEE7000009480A490A4A0B4B7047000084
:10029000D83B000800000020280000202800002093
:1002A000880A002088ED00E0890100088804002009
:1002B000880A002088060020880600200FB41CB59C
:1002C000074B06AA7B4469460090059800F003F9A5
:1002D0000020694600F012F91CBC5DF814FB000018
:1002E000350200002DE9F0410E4604460020206250
:1002F0002046E168884730B3252805D0D4E901219C
:100300009047206A401CF2E7E168204600278847B2
:10031000050018D0A5F14100192802D820354FF466
:1003200000673246294620462760FFF767FF40B145
:10033000012804D0F61D26F007060836D8E7361D3A
:10034000D6E72846DAE7206ABDE8F0812DE9F041DA
:100350000646002410687529314616A510D0AFF363
:100360000080002802DA404213A507E031688A07BE
:1003700001D512A502E0490704D511A5012401E029
:10038000AFF3008000210A2206F1240709E0B0FB48
:10039000F2FCB0FBF2F302FB1C003030785418463C
:1003A000491C0028F3D123462A463046BDE8F041D7
:1003B00000F032B8000000002D0000002B0000000B
:1003C000200000004FF0000200B513469446964608
:1003D000203922BFA0E80C50A0E80C50B1F1200158
:1003E000BFF4F7AF090728BFA0E80C5048BF0CC006
:1003F0005DF804EB890028BF40F8042B08BF704764
:1004000048BF20F8022B11F0804F18BF00F8012BD5
:1004100070477047704770472DE9F0470D46994681
:100420009246044600F124080168880604D5E06974
:1004300021F01001216000E00120A84201DD471BEE
:1004400000E00027A1697A1902EB0900081AA061EF
:100450002078C00602D42046AFF30080002608E0D2
:10046000D4E901211AF806009047206A401C761C46
:1004700020624E45F4DB2078C0060AD52046AFF353
:10048000008006E0D4E9012130209047206A401C1A
:100490002062381EA7F10107F4DC07E0D4E901214E
:1004A00018F805009047206A401C2062281EA5F11C
:1004B0000105F3DC2046AFF300802078000602D56A
:1004C0000220BDE8F0870120FBE7000001694A1C1B
:1004D00002610878704700B58FB0CDE90131002185
:1004E000059105497944CDE9031011466846FFF7A7
:1004F000F9FE0FB000BD0000E5FFFFFF0A6802F83B
:10050000010B0A6070470000004870472804002073
:100510007546FFF7F9FFAE4605006946534620F0E1
:100520000700854618B020B5FFF7ACFEBDE82040B7
:100530004FF000064FF000074FF000084FF0000B9F
:1005400021F00701AC46ACE8C009ACE8C009ACE852
:10055000C009ACE8C0098D46704710B50446AFF33A
:1005600000802046BDE81040FFF75CBE014918201E
:10057000ABBEFEE7260002007047704770470000E0
:100580001E48C06C40F002001C49C8641C4800684A
:1005900020F470201A4908600846006840F42020C2
:1005A00008600846406A20F0FF0115484162406A31
:1005B00040F044011248416211480830006820F4BC
:1005C00070200F49083108600846006840F4A020F8
:1005D0000860081D006820F47020091D08600846A6
:1005E000006840F4A02008600548001D006840F441
:1005F00040700349091D0860704700000010024068
:10060000000400485221574A90421ED1564A926D2A
:1006100042F40012544B9A65534A8832126822F40D
:100620004052C3F888201A46D2F8882042F48052FB
:10063000C3F888201A46926B42F400129A631A4655
:10064000926B22F400129A6342E0484A90421ED113
:10065000454A926D42F48002434B9A65424A883281
:10066000126822F44042C3F888201A46D2F8882043
:1006700042F48042C3F888201A46926B42F480020A
:100680009A631A46926B22F480029A6320E0384AF9
:1006900090421DD1344A926D42F40002324B9A6569
:1006A000314A8832126822F44032C3F888201A4650
:1006B000D2F8882042F48032C3F888201A46926B20
:1006C00042F400029A631A46926B22F400029A6383
:1006D000026822F001020260026822F48052026085
:1006E000026822F470620260026842F080020260D6
:1006F00000220261026922F070420261026942F046
:10070000E0420261026942F00E020261026942F4B3
:1007100060620261026942F480120261026942F47D
:1007200000320261826822F40042826041F4004299
:100730008260026822F400320260826822F4004281
:100740008260426822F400624260426842F00072B5
:100750004260426842F400424260026842F0010294
:1007600002607047005400400010024000580040F2
:10077000005C00402DE9F0410446884617461D46BE
:10078000002D00DD1FB94FF0FF30BDE8F08120469D
:1007900000F057F800232A464146204600F028F88A
:1007A000002802DA4FF0FF30EFE7002608E000BF34
:1007B000A06900F001000028FAD0B85DA062761CA4
:1007C000AE42F4DB00BFA06900F0400020B9A06990
:1007D00000F010000028F6D0A06900F0100010B161
:1007E0004FF0FF30D1E7204600F020F80020CCE7A2
:1007F00070B504460D46002161680B480140012B8D
:1008000002D141F4806101E021F48061C5F3090067
:100810004FF47F0606EA02463043014341F400519B
:100820006160002070BD0000009800FC416841F448
:100830008041416000BF816901F020010029FAD0A8
:10084000704700BF816901F40041B1F5004FF9D054
:10085000704700005E49096821F007015C4A116099
:100860001146096841F0020111605A49096841F4D2
:100870008071584A116000BF5649096801F48061CF
:100880000029F9D010205349496821F0F851514A04
:1008900051601146496841EA00615160114609689A
:1008A00021F08071116000BF4A49096801F00071B0
:1008B000B1F1007FF8D04749C96821F00301454AEA
:1008C000D1601146C96841F00201D1601146C96882
:1008D00021F4FE4141F4A051D1601146C96821F0D4
:1008E000700141F01001D1601146C96821F0C0616A
:1008F000D1601146C96841F08071D1601146096824
:1009000041F08071116000BF3249096801F0007147
:100910000029F9D02F49896821F003012D4A9160FF
:100920001146896841F00301916000BF2949896837
:1009300001F00C010C29F9D12649896821F0F00158
:10094000244A91601146896821F4E0619160114662
:10095000896821F4605191601146096821F0806135
:10096000116000BF1B49096801F08061B1F1806F1F
:10097000F8D01849096921F4FE41164A116111465F
:10098000096941F4C05111611146096941F400310E
:1009900011611146096941F48031116111460968FC
:1009A00041F08061116000BF0A49096801F080616F
:1009B0000029F9D007498831096821F44001054A26
:1009C000C2F888101146096E41F400111166704793
:1009D000002002400010024092B00024402101A8F3
:1009E000FFF7F0FCFFF736FFFFF7CAFD1248FFF7ED
:1009F00009FE00F089F81EE00020119002E0119835
:100A0000401C11900D4911988842F8DB22460CA138
:100A100001A8FFF753FC012000F066F80021022036
:100A200000F0ECF80023074806C801A800F0A6F97A
:100A300000F0FCF8641CDFE700540040A0860100D1
:100A40002564000018000020F0B503461446802BF2
:100A500001DA402900DBF0BD2148007920B10CB952
:100A6000012000E000200446012C1CD1CD1701EB31
:100A70005575ED1003EBC5151A4E755D0A46CE1778
:100A800001EB5676F610A1EBC6070126BE403543B2
:100A9000EEB20846CD1701EB5575ED1003EBC51509
:100AA000104F7E551AE0CD1701EB5575ED1003EB95
:100AB000C5150C4E755D0A46CE1701EB5676F6103D
:100AC000A1EBC6070126BE40B5430846CE1701EB91
:100AD0005676F61003EBC616024FBD5500BFBAE7B7
:100AE00000000020280000200146002006E009B98F
:100AF000002200E0FF22034B1A54401CB0F5806F27
:100B0000F5D370472800002008B500F06BF80020EE
:100B1000009002E00098401C009030490098884204
:100B2000F8D3002000F070F8202000F0F9F8002041
:100B300000F0F6F8B02000F0F3F8C82000F0F0F86C
:100B4000002000F0EDF8102000F0EAF8402000F05E
:100B5000E7F8FF2000F047F8A12000F0E1F8A62018
:100B600000F0DEF8A82000F0DBF83F2000F0D8F815
:100B7000A42000F0D5F8D32000F0D2F8002000F037
:100B8000CFF8D52000F0CCF8F02000F0C9F8D9203B
:100B900000F0C6F8222000F0C3F8DA2000F0C0F818
:100BA000122000F0BDF8DB2000F0BAF8202000F0A1
:100BB000B7F88D2000F0B4F8142000F0B1F801204F
:100BC00000F022F80020FFF78FFF00F02FF8002040
:100BD0000349088048800120487108BDA0860100B3
:100BE00000000020704770B504468125812000F088
:100BF00097F8204600F094F870BD0000014A10807C
:100C0000518070470000002070B5054625B1AF2423
:100C100001200549887103E0AE2400200249887153
:100C2000204600F07DF870BD0000002010B50024C3
:100C300013E004F1B001C8B200F072F8002000F037
:100C40006FF8102000F06CF80549802202FB0410B8
:100C5000114600F075F8601CC4B2082CE9DB10BD29
:100C6000280000202DE9FF4106461F46202E01DB0B
:100C70007E2E03DD002004B0BDE8F0812748008807
:100C80009DF804100844802806DC244840889DF81C
:100C900005100844402801DD0020ECE7002430E086
:100CA000A6F120009DF8051000FB0140029931F8E3
:100CB0001080002520E008FA05F000F4004058B14B
:100CC000164A92782244D1B2144A12782A44D0B2F9
:100CD0003A46FFF7B9FE0EE00FB9012300E000230A
:100CE0001A460E4B9B782344D9B20C4B1B782B44ED
:100CF000D8B2FFF7A9FE6D1C9DF80400A842DAD80F
:100D0000641C9DF80500A042CAD8044800889DF8DC
:100D100004100844014908803046ACE70000002078
:100D200038B5044600208DF800008DF801400223FC
:100D30006A4678210148FFF71DFD38BD0054004088
:100D400070B5ADF5816D06460D4640208DF8040066
:100D5000002404E0315D01AA601C1154641CAC4203
:100D6000F8D3681CC3B201AA78210348FFF702FD3B
:100D70000DF5816D70BD0000005400403FB5044684
:100D80001D460CE020782B46DDE90112FFF76AFFD3
:100D90002178884202D0207804B030BD641C2078CD
:100DA0000028EFD12078F7E74FF04070E1EE100A0D
:100DB000704700000000000000000000000000007C
:100DC00000000000000000100010001000100010D3
:100DD000001000000010000000000028002800287B
:100DE00000000000000000000000000000000024DF
:100DF0000024007C00240048007C004800480000DB
:100E00000000003800540050003800140054005412
:100E10000038001000000020005400580030002866
:100E200000540014000800000000001000280028F2
:100E3000001000340048004800340000000000109A
:100E40000010001000000000000000000000000082
:100E500000000008001000200020002000200020DA
:100E60000020001000080020001000080008000802
:100E700000080008000800100020001000380010D2
:100E8000002800000000000000000000000000003A
:100E9000000000100010007C001000100000000096
:100EA0000000000000000000000000000000000042
:100EB0000010001000100000000000000000000002
:100EC00000380000000000000000000000000000EA
:100ED00000000000000000000010000000000008FA
:100EE000000800100010001000100020002000007A
:100EF0000000003800440044005400440044004412
:100F000000380000000000100030005000100010F9
:100F100000100010001000000000003800440044E1
:100F20000004000800100020007C000000000038D1
:100F300000440004001800040004004400380000CD
:100F4000000000080018002800280048007C000865
:100F5000000800000000007C004000400078000411
:100F60000004004400380000000000380044004045
:100F70000078004400440044003800000000007C79
:100F800000040008001000100020002000200000D5
:100F9000000000380044004400380044004400448D
:100FA0000038000000000038004400440044003CC9
:100FB00000040044003800000000000000000010A1
:100FC0000000000000000000001000000000000011
:100FD00000000000001000000000000000100010E1
:100FE000001000000000000C003000400030000C39
:100FF000000000000000000000000000007C000075
:10100000007C000000000000000000000000006004
:101010000018000400180060000000000000003804
:101020000044000400080010001000000010000040
:10103000000000380044004C0054005C00400040B8
:1010400000380000000000100028002800280028B8
:10105000007C00440044000000000078004400448C
:10106000007800440044004400780000000000388C
:1010700000440040004000400040004400380000B0
:101080000000007000480044004400440044004850
:10109000007000000000007C00400040007C004028
:1010A00000400040007C00000000007C0040004048
:1010B0000078004000400040004000000000003880
:1010C000004400400040005C004400440038000040
:1010D0000000004400440044007C004400440044FC
:1010E0000044000000000038001000100010001044
:1010F000001000100038000000000004000400048C
:101100000004000400040044003800000000004413
:1011100000480050006000500048004800440000B3
:1011200000000040004000400040004000400040FF
:10113000007C000000000044006C006C005400447F
:1011400000440044004400000000004400640064C7
:1011500000540054004C004C0044000000000038D3
:1011600000440044004400440044004400380000AF
:101170000000007800440044004400780040004033
:1011800000400000000000380044004400440044D7
:10119000004400540038000400000078004400447B
:1011A0000044007800480048004400000000003877
:1011B00000440040003000080004004400380000F3
:1011C0000000007C00100010001000100010001043
:1011D00000100000000000440044004400440044AB
:1011E0000044004400380000000000440044004473
:1011F0000028002800280010001000000000004413
:101200000044005400540054006C002800280000E2
:1012100000000044002800280010001000280028CA
:101220000044000000000044004400280028001092
:1012300000100010001000000000007C00040008F6
:101240000010001000200040007C0000000000188A
:10125000001000100010001000100010001000100E
:1012600000180020002000100010001000100008DE
:1012700000080000000000300010001000100010F6
:10128000001000100010001000300010002800288E
:10129000004400000000000000000000000000000A
:1012A000000000000000000000000000000000003E
:1012B00000FE002000100000000000000000000000
:1012C0000000000000000000000000380044003C66
:1012D0000044004C00340000000000400040005872
:1012E0000064004400440064005800000000000056
:1012F0000000003800440040004000440038000076
:101300000000000400040034004C00440044004C81
:101310000034000000000000000000380044007CA1
:1013200000400044003800000000000C0010007C69
:10133000001000100010001000100000000000005D
:1013400000000034004C00440044004C0034000411
:10135000007800400040005800640044004400440D
:101360000044000000000010000000700010001099
:1013700000100010001000000000001000000070BD
:1013800000100010001000100010001000E00040DD
:101390000040004800500060005000480044000039
:1013A000000000700010001000100010001000106D
:1013B00000100000000000000000007800540054FD
:1013C00000540054005400000000000000000058C9
:1013D0000064004400440044004400000000000099
:1013E000000000380044004400440044003800007D
:1013F0000000000000000058006400440044006445
:10140000005800400040000000000034004C004440
:101410000044004C003400040004000000000058A8
:101420000064004000400040004000000000000058
:10143000000000380044003000080044003800007C
:101440000000002000200078002000200020002064
:1014500000180000000000000000004400440044A8
:101460000044004C00340000000000000000004474
:1014700000440028002800280010000000000000A0
:101480000000005400540054006C002800280000A4
:101490000000000000000044002800100010002898
:1014A0000044000000000000000000440044002848
:1014B0000028001000100010006000000000007CF8
:1014C0000008001000200040007C00000000001810
:1014D000001000100010002000200010001000106C
:1014E0000018001000100010001000100010001074
:1014F0000010001000100030001000100010000854
:101500000008001000100010003000000000000073
:101510000074004C0000000000000000000000000B
:1015200000000000000000000000000000000000BB
:1015300000000000000000000000000000000000AB
:1015400000000000000C000C000C000C000C000C53
:10155000000C000C000C000C000C0000000C000C37
:101560000000000000000000001B001B001B001B0F
:10157000001B000000000000000000000000000050
:101580000000000000000000000000008019801929
:1015900080198019C07FC07F80190033C07FC07F51
:1015A000003300330033003300000000000000006F
:1015B000001E003F807580650074003C001E00071F
:1015C0008005806580658075003F001E0004000472
:1015D00000000000007000D840D8C0D880D9007347
:1015E0000006000C801BC036C066C046C0068003E3
:1015F0000000000000000000001E003F0033003328
:101600000033001E000CC03CC066806380618063B4
:10161000C03E801C0000000000000000000C000C18
:10162000000C000C000C0000000000000000000096
:10163000000000000000000000000000000080002A
:1016400000010003000600060004000C000C000C62
:10165000000C000C000C0004000600060003000152
:101660008000002000100018000C000C0004000690
:10167000000600060006000600060004000C000C30
:101680000018001000200000000C002D003F001E7C
:101690000033000000000000000000000000000017
:1016A000000000000000000000000000000000003A
:1016B000000C000C000C000CC0FFC0FF000C000C64
:1016C000000C000C00000000000000000000000002
:1016D000000000000000000000000000000000000A
:1016E0000000000000000000000C000C00040004DA
:1016F00000080000000000000000000000000000E2
:1017000000000000001E001E00000000000000009D
:1017100000000000000000000000000000000000C9
:1017200000000000000000000000000000000000B9
:10173000000C000C0000000000000000000300038B
:1017400000030006000600060006000C000C000C5A
:10175000000C001800180018000000000000000035
:10176000001E003F0033806180618061806D806D6C
:101770008061806180610033003F001E0000000036
:10178000000000000006000E001E003600260006C5
:101790000006000600060006000600060006000619
:1017A0000000000000000000001E003F8073806108
:1017B0008061800100030006000C0018003000600A
:1017C000807F807F0000000000000000001C003EC1
:1017D000006300630003000E000E0003800180011F
:1017E00080618073003F001E0000000000000000C8
:1017F0000006000E000E001E001E00160036003609
:101800000066807F807F0006000600060000000062
:1018100000000000007F007F006000600060006E3C
:10182000007F80638001800180618073003F001E23
:101830000000000000000000001E003F80338061B7
:101840000060006E007F8073806180618061803302
:10185000003F001E0000000000000000807F807F2D
:1018600080010003000300060006000C000C000CC1
:101870000008001800180018000000000000000018
:10188000001E003F8063806180610021001E003FD8
:101890008061806180618061003F001E0000000067
:1018A00000000000001E003F0073806180618061C5
:1018B0008073803F801D800180610073003F001EA7
:1018C0000000000000000000000000000000000018
:1018D000000C000C000000000000000000000000F0
:1018E000000C000C000000000000000000000000E0
:1018F000000000000000000C000C000000000000D0
:1019000000000000000C000C0004000400080000AF
:1019100000000000000080008003000E003800601E
:101920000038000E8003800000000000000000006E
:10193000000000000000000000000000807F807FA9
:1019400000000000807F807F000000000000000099
:101950000000000000000000000000000000004047
:101960000070001C000780010007001C0070004090
:10197000000000000000000000000000001F803F89
:10198000C071C060C000C00180030007000E000CE1
:10199000000C0000000C000C000000000000000023
:1019A000001E003F803180718063806F806D806D8C
:1019B000806F806700600032003E001C0000000065
:1019C00000000000000E000E001B001B001B001B8F
:1019D00080318031803F803F8031C060C060C06016
:1019E0000000000000000000007C007E0063006337
:1019F00000630063007E007E00638061806180631D
:101A0000007F007E0000000000000000001E003F7C
:101A100080318061006000600060006000600060F4
:101A200080618031003F001E0000000000000000C7
:101A3000007C007F006380638061806180618061E1
:101A40008061806100630063007E007C0000000014
:101A500000000000807F807F006000600060006008
:101A6000007F007F0060006000600060807F807FFA
:101A70000000000000000000807F807F00600060A8
:101A800000600060007F007F006000600060006018
:101A9000006000600000000000000000001E003F29
:101AA00080318061006000600060806380638061DD
:101AB00080618031803F001E0000000000000000B7
:101AC000806180618061806180618061807F807FD2
:101AD00080618061806180618061806100000000C0
:101AE00000000000003F003F000C000C000C000C48
:101AF000000C000C000C000C000C000C003F003F20
:101B000000000000000000008001800180018001D1
:101B1000800180018001800180018061806180738B
:101B2000003F001E0000000000000000C060806157
:101B3000006300660066006C0078007C006600664A
:101B4000006380618061C060000000000000000050
:101B50000060006000600060006000600060006085
:101B60000060006000600060807F807F00000000F7
:101B700000000000C071C071C07BC07AC06AC06A3A
:101B8000C06EC064C060C060C060C060C060C06043
:101B90000000000000000000807180718079807971
:101BA0008079806D806D806D8065806780678067DB
:101BB000806380630000000000000000001E003F02
:101BC00000338061806180618061806180618061BB
:101BD00080610033003F001E000000000000000094
:101BE000007E007F80638061806180618063007F10
:101BF000007E006000600060006000600000000087
:101C000000000000001E003F0033806180618061A1
:101C1000806180618061806580670033803F401E05
:101C20000000000000000000007E007F80638061F3
:101C300080618063007F007E0066006300638061D6
:101C40008061C0600000000000000000000E001F66
:101C50008031803100300038001E00078003806131
:101C600080618031003F001E000000000000000085
:101C7000C0FFC0FF000C000C000C000C000C000C9E
:101C8000000C000C000C000C000C000C000000000C
:101C900000000000806180618061806180618061FE
:101CA000806180618061806180618073003F001E7F
:101CB0000000000000000000C060C060C060803113
:101CC00080318031001B001B001B001B000E000E2A
:101CD000000E00040000000000000000C0C0C0C0F2
:101CE000C0C0C0C0C0C0C0CC804C804C805E8052A0
:101CF000805280738061806100000000000000005D
:101D0000C0C0806080610033003B001E000C000CEE
:101D1000001E001F003B80718061C0C000000000F9
:101D200000000000C0C08061806100330033001EED
:101D3000001E000C000C000C000C000C000C000C31
:101D40000000000000000000803F803F8001000391
:101D500000030006000C000C0018001800300060A2
:101D6000807F807F000000000000000F000F000C4B
:101D7000000C000C000C000C000C000C000C000C03
:101D8000000C000C000C000C000C000F000F0000F9
:101D9000001800180018000C000C000C000C0006C5
:101DA0000006000600060003000300030000000018
:101DB0000000001E001E00060006000600060006C9
:101DC00000060006000600060006000600060006E3
:101DD0000006001E001E0000000C000C001E001279
:101DE00000330033806180610000000000000000CB
:101DF00000000000000000000000000000000000E3
:101E000000000000000000000000000000000000D2
:101E100000000000000000000000E0FF00000000E3
:101E200000380018000C0000000000000000000056
:101E300000000000000000000000000000000000A2
:101E4000000000000000000000000000001F803FB4
:101E500080618001801F803F80618063807FC03807
:101E600000000000000000000060006000600060F2
:101E7000006E007F8073806180618061806180730B
:101E8000007F006E00000000000000000000000065
:101E900000000000001E003F807380610060006051
:101EA00080618073003F001E000000000000000001
:101EB0008001800180018001801D803F80738061EE
:101EC0008061806180618073803F801D0000000020
:101ED000000000000000000000000000001E003FA5
:101EE00000738061807F807F00608071003F001EF2
:101EF0000000000000000000C007C00F000C000C34
:101F0000807F807F000C000C000C000C000C000C8B
:101F1000000C000C000000000000000000000000A9
:101F20000000801D803F80738061806180618061DE
:101F30008073803F801D80018063007F003E000031
:101F40000060006000600060006F807F80718061D1
:101F5000806180618061806180618061000000003B
:101F6000000000000006000600000000003E003EE9
:101F70000006000600060006000600060006000631
:101F80000000000000000006000600000000003E07
:101F9000003E0006000600060006000600060006D9
:101FA000000600060046007E003C00000060006065
:101FB00000600060806100630066006C007C007659
:101FC000006300638061C06000000000000000004A
:101FD000003E003E00060006000600060006000661
:101FE00000060006000600060006000600000000CD
:101FF00000000000000000000000000080DDC0FFC5
:10200000C0CEC0CCC0CCC0CCC0CCC0CCC0CCC0CC6E
:1020100000000000000000000000000000000000C0
:10202000006F807F807180618061806180618061EC
:1020300080618061000000000000000000000000DE
:1020400000000000001E003F80738061806180619D
:1020500080618073003F001E00000000000000004F
:10206000000000000000006E007F807380618061CE
:10207000806180618073007F006E0060006000609E
:1020800000600000000000000000801D803F8073A1
:1020900080618061806180618073803F801D8001EC
:1020A00080018001800100000000000000000000AD
:1020B0000067803F003900300030003000300030D1
:1020C00000300030000000000000000000000000B0
:1020D00000000000001E803F80610060007F803FA4
:1020E00080018061007F001E0000000000000000F1
:1020F0000000000800180018007F007F001800187A
:102100000018001800180018801F800F0000000041
:1021100000000000000000000000000080618061FD
:10212000806180618061806180618063807F803DAB
:10213000000000000000000000000000000000009F
:10214000C060803180318031001B001B001B000EFD
:10215000000E00060000000000000000000000006B
:102160000000000080DD80DD80DD00550055005559
:10217000007700770022002200000000000000002D
:102180000000000000000000806100330033001EEA
:10219000000C000C001E00330033806100000000C2
:1021A00000000000000000000000806180618031BC
:1021B00000330033001B001B001B000E000E000E3E
:1021C000001C007C00700000000000000000000007
:1021D000C07FC07F800100030006000C00180030A3
:1021E000C07FC07F00000000000080038007000661
:1021F0000006000600060006000E001C001C000E73
:1022000000060006000600060006800780030006A0
:10221000000600060006000600060006000600068E
:10222000000600060006000600060006000600067E
:1022300000060038003C000C000C000C000C000CE8
:10224000000E00070007000E000C000C000C000C34
:10225000000C003C003800000000000000000000FE
:10226000000000008038807F004700000000000070
:10227000000000000000000000000000000000005E
:10228000000000000000000000000000000000004E
:10229000000000000000000000000000000000003E
:1022A0000000000000000000000000000000E0034B
:1022B000E003E003E003E003E003E003E003C00326
:1022C000C003C001C001C001C001C0010000000086
:1022D0000000E003E003E003000000000000000055
:1022E00000003C1E3C1E3C1E3C1E3C1E3C1E3C1E78
:1022F00000000000000000000000000000000000DE
:1023000000000000000000000000000000000000CD
:10231000000000000000CE01CE03DE039E039C03FC
:102320009C07FF3FFF7F3807380F780F780F780E34
:10233000FFFFFFFFF01EF01CE01CE03CE03DE03939
:1023400000000000000000000000FC03FE0FEE1F74
:10235000E01EE01EE01EE01EE01FE00FE007F003BD
:10236000FC01FE01FE01FE01FE01FE01FE01FE3D3B
:10237000FC3FF00FE001E001000000000000033E20
:1023800007F78FE78EE79EE3BCE3B8E7F8E7F0F7DF
:10239000E03FC001FF03FF07F307F30FF31EF33C19
:1023A000F338F3787FF03FE0000000000000000009
:1023B0000000E007F80F780F781F781F781F780F5C
:1023C000F00FE00F801FC37FC3FBE7F3F7F1F7F0D7
:1023D000FFF07FF03EF87F7CFF3FEF1F0000000022
:1023E000000000000000E003E003E003E003E0037E
:1023F000C003C00100000000000000000000000059
:1024000000000000000000000000000000000000CC
:10241000000000000000000000003F007C00F00110
:10242000E001C003C00780078007800F000F000F86
:10243000000F000F000F000F800F80078007C007FC
:10244000C003E001F0017C003F000F000000007EAF
:10245000001FC007C003E001F001F000F000F80029
:10246000780078007800780078007800F800F000B4
:10247000F000F001E001C003C007001F007E0078FB
:102480000000E003C003C001CE39FF3F7F3F2003BF
:102490007003F807780F3C1F3806000000000000AA
:1024A000000000000000000000000000000000002C
:1024B000000000000000000000000000000000001C
:1024C0000000C001C001C001C001C001C001C001C5
:1024D000FFFFFFFFC001C001C001C001C001C0017A
:1024E00000000000000000000000000000000000EC
:1024F00000000000000000000000000000000000DC
:10250000000000000000000000000000E003E00305
:10251000E003E003E001E001E001C001800300000E
:1025200000000000000000000000000000000000AB
:1025300000000000FE3FFE3F000000000000000021
:10254000000000000000000000000000000000008B
:10255000000000000000000000000000000000007B
:10256000000000000000000000000000000000006B
:1025700000000000E003E003E003E00300000000CF
:102580000000000000000F000F001E001E003C00B5
:102590003C0078007800F000F000E001E001C003AA
:1025A000C00380078007000F000F001E001E003CC4
:1025B000003C0078007800F00000F007F80F7C1F66
:1025C0003E3E1E3C1F7C1F7C0F780F780F780F78E3
:1025D0000F780F780F781F7C1F7C1E3C3E3E7C1FBF
:1025E000F80FF00700000000000000000000F000FD
:1025F000F007F03FF03FF001F001F001F001F001D1
:10260000F001F001F001F001F001F001F001F00142
:10261000F001F001FF3FFF3F00000000000000005C
:102620000000E00FF83F7C3C3C003E003E003E00D6
:102630003C003C007C00F800F001E003C00780078C
:10264000000F001E003E003CFE3FFE3F0000000069
:10265000000000000000F00FF81F7C1C3E003E0050
:102660003E003C003C00F800F00FF80F7C003E00FC
:102670001E001E001E001E003E007C1CF81FE01FF6
:10268000000000000000000000007800F800F800E2
:10269000F801F803F807F807780F781E781E783CE1
:1026A00078787878FFFFFFFF78007800780078006E
:1026B0007800780000000000000000000000FC1F0F
:1026C000FC1FFC1F001E001E001E001E001EE01F3F
:1026D000F81FFC007C003E003E001E003E003E0055
:1026E0003C007C1CF81FE01F000000000000000000
:1026F0000000FC01FE078E0F001F001E003E003C84
:10270000003CF83DFC3F3E7F1F7E0F3C0F3C0F3CE2
:102710000F3C0F3E1F1E3E1FFC0FF0030000000089
:10272000000000000000FF3FFF3FFF3F0F001E00C2
:102730001E003C0038007800F000F000E001E001ED
:10274000C003C0038007800F800F000F001F001F11
:1027500000000000000000000000F807FC0F3E1F12
:102760001E1E1E3E1E3E1E1E3C1FF80FF007F80FD9
:10277000FC1E3E3E1F3C1F7C0F7C0F7C1F3C3E3FDF
:10278000FC1FF00700000000000000000000F00740
:10279000F80F7C1E3E3C1E3C1F7C1F7C1F7C1F7C58
:1027A0001F3C3F3EFF1FEF071F001E001E003E00A4
:1027B0003C00F838F03FE01F00000000000000007F
:1027C0000000000000000000000000000000E00326
:1027D000E003E003E0030000000000000000000050
:1027E00000000000E003E003E003E003000000005D
:1027F00000000000000000000000000000000000D9
:102800000000E003E003E003E0030000000000003C
:102810000000000000000000E003E003E003E0032C
:10282000E001E001E001C0038003000000000000BF
:1028300000000000000003000F003F00FC00F00358
:10284000C00F003F00FE003FC00FF003FC003F0040
:102850000F00030000000000000000000000000066
:102860000000000000000000000000000000000068
:102870000000FFFFFFFF000000000000FFFFFFFF60
:102880000000000000000000000000000000000048
:10289000000000000000000000000000000000E058
:1028A00000F8007E801FE007F8017E001F007E0018
:1028B000F801E007801F007E00F800E00000000043
:1028C000000000000000F01FFC3F3E381F381F389A
:1028D0001E001E003C007800F000E001C003C003B1
:1028E000C007C007000000000000C007C007C00705
:1028F00000000000000000000000F803FE0F1E1F93
:102900000F3E7F3CFF78EF79C773C7F38FF38FF3E8
:102910008FF39FF39FF3FF73FF7BF779003C1C1F3E
:10292000FC0FF803000000000000000000000000A1
:1029300000000000E003E003F007F007F007780F65
:10294000780F7C0E3C1E3C1E3E3CFE3FFF3F1F7836
:102950000F780FF007F007F0000000000000000003
:102960000000000000000000F83FFC3F3E3C1E3C21
:102970001E3C1E3C3E3C7C3CF03FF83F7E3C1F3CF6
:102980001F3C0F3C0F3C1F3CFE3FF83F0000000087
:10299000000000000000000000000000FF01FF0731
:1029A000871F003E003C007C0078007800780078AB
:1029B0000078007C007C003E003F831FFF07FF0182
:1029C0000000000000000000000000000000000007
:1029D000F07FFC7F7E781F781F780F780F780F7854
:1029E0000F780F780F780F780F781F781E787E7821
:1029F000F87FE07F00000000000000000000000001
:102A000000000000FF3FFF3F003E003E003E003E52
:102A1000003E003EFE3FFE3F003E003E003E003EC8
:102A2000003E003EFF3FFF3F0000000000000000AE
:102A30000000000000000000FF1FFF1F001E001E1E
:102A4000001E001E001E001EFF1FFF1F001E001E96
:102A5000001E001E001E001E001E001E00000000C2
:102A6000000000000000000000000000FE03FF0F57
:102A7000871F003E007C007C007800F800F87FF89B
:102A80007FF80F780F7C0F7C0F3E8F1FFF0FFE0328
:102A90000000000000000000000000000000000036
:102AA0001F7C1F7C1F7C1F7C1F7C1F7C1F7C1F7C4E
:102AB000FF7FFF7F1F7C1F7C1F7C1F7C1F7C1F7C78
:102AC0001F7C1F7C000000000000000000000000D0
:102AD00000000000FF3FFF3FE003E003E003E003EE
:102AE000E003E003E003E003E003E003E003E003CE
:102AF000E003E003FF3FFF3F000000000000000094
:102B00000000000000000000FC1FFC1F7C007C0097
:102B10007C007C007C007C007C007C007C007C00D5
:102B20007C0078007800F838F03FC03F00000000DB
:102B30000000000000000000000000001F3C1E3CE0
:102B40003C3C783CF03CE03DE03FC03F803FC03F34
:102B5000E03FF03DF03C783C7C3C3E3C1F3C0F3C71
:102B60000000000000000000000000000000000065
:102B7000003E003E003E003E003E003E003E003E65
:102B8000003E003E003E003E003E003E003E003E55
:102B9000FF3FFF3F000000000000000000000000B9
:102BA000000000001FF81FFC1FFC3FFE3FFE3FFE21
:102BB0007FFF77FF77FFF7F7E7F7E7F3E7F3C7F371
:102BC00007F007F007F007F0000000000000000029
:102BD00000000000000000000F7C0F7C0F7E0F7FC4
:102BE0000F7F8F7F8F7FCF7FEF7BEF79FF79FF782C
:102BF000FF787F783F783F781F781F7800000000CB
:102C0000000000000000000000000000F007FC1FB2
:102C10003E3E1F7C0F780F780FF80FF80FF80FF873
:102C20000FF80FF80F780F781F7C3E3EFC1FF0075F
:102C30000000000000000000000000000000000094
:102C4000FC3FFF3F1F3E0F3E0F3E0F3E0F3E1F3E1D
:102C50003F3EFC3FF03F003E003E003E003E003E57
:102C6000003E003E000000000000000000000000E8
:102C700000000000F007FC1F3E3E1F7C0F780F781D
:102C80000FF80FF80FF80FF80FF80FF80F780F780C
:102C90001F7C3E3EFC1FF8077C003F000F00030036
:102CA0000000000000000000F03FFC3F7E3C3E3C86
:102CB0001E3C1E3C3E3C3C3CFC3CF03FE03FF03DBB
:102CC000F83C7C3C3E3C1E3C1F3C0F3C000000009E
:102CD000000000000000000000000000FC07FE1FD4
:102CE0000E3E003C003C003C003EC01FF80FFE03BF
:102CF0007F001F000F000F001F203E3CFC3FF01F15
:102D000000000000000000000000000000000000C3
:102D1000FFFFFFFFE003E003E003E003E003E00365
:102D2000E003E003E003E003E003E003E003E0038B
:102D3000E003E003000000000000000000000000CD
:102D4000000000000F7C0F7C0F7C0F7C0F7C0F7C41
:102D50000F7C0F7C0F7C0F7C0F7C0F7C0F7C1E3C4C
:102D60001E3C3E3EFC1FF00700000000000000007B
:102D7000000000000000000007F007F007F80F78DF
:102D80000F7C1E3C1E3C1E3E3C1E3C1F781F780FD5
:102D9000F80FF007F007F007E003E0030000000081
:102DA00000000000000000000000000003E003F04D
:102DB00003F007F0E7F3E7F3E7F3E773F77BF77F59
:102DC000FF7F7F7F7F7F7E7F7E3F3E3E3E3E3E3E5B
:102DD00000000000000000000000000000000000F3
:102DE00007F80F7C1E3E3E3E3C1FF80FF007E00741
:102DF000E003E003F007F80F7C0F7C1E3E3C1F78D9
:102E00000F780FF00000000000000000000000003C
:102E10000000000007F807780F7C1E3C1E3E3C1F98
:102E2000780FF80FF007E003E003E003E003E003AE
:102E3000E003E003E003E003000000000000000006
:102E40000000000000000000FF7FFF7F0F001F0058
:102E50003E007C00F800F000E001E003C007800FB6
:102E6000000F001E003E007CFF7FFF7F000000007F
:102E7000000000000000FF07800780078007800730
:102E8000800780078007800780078007800780070A
:102E900080078007800780078007800780078007FA
:102EA00080078007FF07FF07000000780078003CDC
:102EB000003C001E001E000F000F80078007C003AB
:102EC000C003E001E001F000F000780078003C0071
:102ED0003C001E001E000F000F0007000000F07FE6
:102EE000F000F000F000F000F000F000F000F00062
:102EF000F000F000F000F000F000F000F000F00052
:102F0000F000F000F000F000F000F000F07FF07F43
:102F10000000C000C001C001E003E003F007F007BB
:102F20007807780F380F3C1E3C1E1E3C1E3C0F38A5
:102F30000F7807780000000000000000000000008B
:102F40000000000000000000000000000000000081
:102F50000000000000000000000000000000000071
:102F60000000000000000000000000000000000061
:102F7000FFFFFFFF000000000000F0000000000065
:102F80000000000000000000000000000000000041
:102F90000000000000000000000000000000000031
:102FA0000000000000000000000000000000000021
:102FB00000000000000000000000F80FFC3F7C3C17
:102FC0003E003E003E00FE07FE1F3E3E3E7C3E7839
:102FD0003E7C7E7CFF3FCF1F000000000000000011
:102FE0000000003C003C003C003C003C003CF83D44
:102FF000FE3F3E3F1F3E0F3C0F3C0F3C0F3C0F3C43
:103000000F3C1F3C1E3C3E3FFC3FF03B00000000DD
:1030100000000000000000000000000000000000B0
:103020000000FE03FF0F871F003E003E003C007CB7
:10303000007C007C003C003E003E871FFF0FFE032B
:10304000000000000000000000001F001F001F0023
:103050001F001F001F00FF07FF1F3F3E1F3C1F7C7C
:103060001F7C1F7C1F781F781F7C1F7C3F3C7F3E8E
:10307000FF1FDF0F00000000000000000000000044
:1030800000000000000000000000F803FC0F3E1FDD
:103090001E3E1F3C1F7CFF7FFF7F007C007C003CAE
:1030A000003E071FFF0FFE030000000000000000AD
:1030B0000000FF01E103C003C007C007C007FF7F96
:1030C000FF7FC007C007C007C007C007C007C00711
:1030D000C007C007C007C007C007C0070000000046
:1030E00000000000000000000000000000000000E0
:1030F0000000EF07FF1F7F3E1F3C1F7C1F7C1F78D7
:103100001F781F781F7C1F7C3F3C7F3EFF1FDF0F17
:103110001E001E001E007C38F83F003C003C003CB6
:10312000003C003C003CFC3DFE3F9E3F1F3F1F3EDD
:103130001F3C1F3C1F3C1F3C1F3C1F3C1F3C1F3CB7
:103140001F3C1F3C00000000000000000000F001D8
:10315000F0010000000000000000E07FE07FE001DF
:10316000E001E001E001E001E001E001E001E00157
:10317000E001E001E001E0010000000000000000CB
:103180000000F800F8000000000000000000F83F18
:10319000F83FF800F800F800F800F800F800F80030
:1031A000F800F800F800F800F800F800F800F8005F
:1031B000F000F071E07F003C003C003C003C003C33
:1031C000003C1F3C3E3C7C3CF83CF03DE03DC03FB9
:1031D000C03FE03FF03DF83C7C3C3E3C1F3C1F3C88
:1031E00000000000000000000000F07FF001F0018E
:1031F000F001F001F001F001F001F001F001F00147
:10320000F001F001F001F001F001F001F001F00136
:10321000F001F001000000000000000000000000CC
:10322000000000000000000000009EF7FFFFFFFF0D
:10323000FFFFE7FBE7F9C7F1C7F1C7F1C7F1C7F136
:10324000C7F1C7F1C7F1C7F100000000000000009E
:103250000000000000000000000000000000FC3D35
:10326000FE3F9E3F1F3F1F3E1F3C1F3C1F3C1F3C1D
:103270001F3C1F3C1F3C1F3C1F3C1F3C000000002C
:10328000000000000000000000000000000000003E
:103290000000F007FC1F3E3E1F3C1F7C0F780F789C
:1032A0000F780F780F781F7C1F3C3E3EFC1FF00705
:1032B000000000000000000000000000000000000E
:1032C000000000000000F83DFE3F3E3F1F3E0F3C67
:1032D0000F3C0F3C0F3C0F3C0F3C1F3C1E3E3E3F43
:1032E000FC3FF83F003C003C003C003C003C000040
:1032F00000000000000000000000EE07FE1F7E3E00
:103300001E3C1E7C1E781E781E781E781E781E7C41
:103310003E7C7E3EFE1FDE0F1E001E001E001E00B5
:103320001E000000000000000000000000007F1FE1
:10333000FF1FE71FC71F871F001F001F001F001F61
:10334000001F001F001F001F001F001F00000000C3
:10335000000000000000000000000000000000006D
:103360000000FC07FE1F0E1E003E003E003FE01F57
:10337000FC07FE003E001E001E003E3CFC3FF01F0E
:10338000000000000000000000000000000000003D
:10339000800780078007FF7FFF7F80078007800707
:1033A0008007800780078007800780078007C007A5
:1033B000FF03FF010000000000000000000000000B
:1033C000000000000000000000001E3C1E3C1E3CEF
:1033D0001E3C1E3C1E3C1E3C1E3C1E3C1E3C3E3CFD
:1033E0007E3CFE3EFE1FDE0F0000000000000000DD
:1033F000000000000000000000000000000007F0D6
:103400000F780F781E3C1E3C1E3E3C1E3C1E780F63
:10341000780FF00FF007F007E003E0030000000072
:10342000000000000000000000000000000000009C
:10343000000003F0E3F1E3F3E7F3F7F3F7F3F77FCB
:10344000777F7F7F7F7F7F7F3E3E3E3E3E3E3E3E9C
:10345000000000000000000000000000000000006C
:103460000000000000000F7C1E3E3C3E3C1FF80F99
:10347000F007F007E003F007F807F80F7C1E3E3E68
:103480001F3C1F780000000000000000000000004A
:103490000000000000000000000007F80F780F7C1B
:1034A0001E3C1E3C3C1E3C1E3C1F780FF80FF007D4
:1034B000F007E003E003C003C003C0038007800FF0
:1034C000007F000000000000000000000000FF3F3F
:1034D000FF3F1F003E007C00F800F001E003C00742
:1034E000800F001F001E003CFF7FFF7F00000000D8
:1034F000000000000000FE01E003C003C003C003A1
:10350000C003E001E001E001C001C003803F803F53
:10351000C003C001E001E001E001C003C003C0033B
:10352000C003E003FE017E000000C001C001C00135
:10353000C001C001C001C001C001C001C001C00183
:10354000C001C001C001C001C001C001C001C00173
:10355000C001C001C001C001C001C0010000C03FE6
:10356000E003E001E001E001E001C001C003C003AD
:10357000C001E001FE00FE00E001C001C003C00385
:10358000C001E001E001E001E001E003C03F003FD5
:10359000000000000000000000000000000000002B
:1035A0000000000000000000073FC77FE773FFF145
:1035B0007EF000000000000000000000000000009D
:1035C00000000000000000000000000000000000FB
:1035D000000000000000002000200020002000204B
:1035E00000000020000000500050005000000000CB
:1035F0000000000000000050005000F8005000F8EB
:103600000050005000000020007800A0007000284A
:1036100000F00020000000C000C8001000200040A2
:10362000009800180000004000A000A0004000A882
:1036300000900068000000300030002000400000D2
:10364000000000000000001000200040004000408A
:1036500000200010000000400020001000100010AA
:10366000002000400000002000A8007000F800705A
:1036700000A80020000000000020002000F800202A
:1036800000200000000000000000000000000030EA
:1036900000300020000000000000000000F80000E2
:1036A000000000000000000000000000000000001A
:1036B0000030003000000000000800100020004032
:1036C00000800000000000700088009800A800C87A
:1036D0000088007000000020006000200020002012
:1036E000002000700000007000880008007000805A
:1036F000008000F8000000F800080010003000080A
:10370000008800700000001000300050009000F8A9
:1037100000100010000000F8008000F00008000811
:1037200000880070000000380040008000F0008831
:1037300000880070000000F8000800080010002059
:103740000040008000000070008800880070008841
:103750000088007000000070008800880078000871
:10376000001000E000000000000000200000002029
:103770000000000000000000000000200000002009
:103780000020004000000008001000200040002041
:103790000010000800000000000000F8000000F821
:1037A0000000000000000040002000100008001091
:1037B0000020004000000070008800080030002059
:1037C0000000002000000070008800A800B800B0D1
:1037D000008000780000002000500088008800F879
:1037E00000880088000000F00088008800F0008851
:1037F000008800F0000000700088008000800080D9
:1038000000880070000000F00088008800880088B0
:10381000008800F0000000F80080008000F00080C8
:10382000008000F8000000F80080008000F00080B8
:1038300000800080000000780088008000800098F0
:1038400000880078000000880088008800F8008860
:103850000088008800000070002000200020002068
:103860000020007000000038001000100010001050
:103870000090006000000088009000A000C000A040
:1038800000900088000000800080008000800080A0
:10389000008000F80000008800D800A800A800A858
:1038A0000088008800000088008800C800A80098F0
:1038B0000088008800000070008800880088008868
:1038C00000880070000000F00088008800F0008090
:1038D000008000800000007000880088008800A838
:1038E00000900068000000F00088008800F000A050
:1038F00000900088000000700088008000700008C0
:1039000000880070000000F800A8002000200020BF
:1039100000200020000000880088008800880088BF
:1039200000880070000000880088008800880088F7
:1039300000500020000000880088008800A800A82F
:1039400000A80050000000880088005000200050AF
:1039500000880088000000880088005000200020B7
:1039600000200020000000F8000800100070004057
:10397000008000F800000078004000400040004057
:10398000004000780000000000800040002000108F
:103990000008000000000078000800080008000887
:1039A000000800780000002000500088000000009F
:1039B0000000000000000000000000000000000007
:1039C000000000F80000006000600020001000000F
:1039D0000000000000000000000000600010007007
:1039E0000090007800000080008000B000C80088CF
:1039F00000C800B0000000000000007000880080D7
:103A00000088007000000008000800680098008826
:103A1000009800680000000000000070008800F8B6
:103A200000800070000000100028002000700020BE
:103A300000200020000000000000007000980098A6
:103A40000068000800000080008000B000C8008806
:103A50000088008800000020000000600020002096
:103A60000020007000000010000000100010001086
:103A700000900060000000800080009000A000C066
:103A800000A0009000000060002000200020002026
:103A90000020007000000000000000D000A800A876
:103AA00000A800A800000000000000B000C80088C6
:103AB0000088008800000000000000700088008876
:103AC0000088007000000000000000B000C800C8BE
:103AD00000B000800000000000000068009800981E
:103AE0000068000800000000000000B000C800806E
:103AF000008000800000000000000078008000705E
:103B0000000800F000000020002000F80020002045
:103B100000280010000000000000008800880088D5
:103B200000980068000000000000008800880088FD
:103B3000005000200000000000000088008800A85D
:103B400000A8005000000000000000880050002085
:103B50000050008800000000000000880088007805
:103B60000008008800000000000000F8001000209D
:103B7000004000F80000001000200020004000205D
:103B80000020001000000020002000200000002085
:103B90000020002000000040002000200010002035
:103BA000002000400000004000A8001000000000BD
:103BB0000000000000000000D83B000800000020CA
:103BC00028000000C4010008003C00082800002074
:103BD000600A0000E0010008000000000000000092
:103BE00006080000C6350008070A0000B20D0008EC
:103BF0000B1200001E150008101A00007A2200089F
:040000050800018965
:00000001FF
